:020000040800F2
:100000000050002005330008653200086732000800
:10001000693200086B3200086D32000800000000F1
:100020000000000000000000000000006F32000827
:1000300071320008000000007332000875320008B9
:100040004D3300084D3300084D3300084D33000890
:100050004D3300084D3300084D3300084D33000880
:100060004D3300084D3300084D3300084D33000870
:100070004D3300084D3300084D3300084D33000860
:100080004D3300084D3300084D3300084D33000850
:100090004D3300084D3300084D3300084D33000840
:1000A0004D3300084D3300084D3300084D33000830
:1000B000793200084D3300084D3300084D330008F5
:1000C0004D3300084D3300084D3300084D33000810
:1000D0004D3300084D3300084D3300084D33000800
:1000E0004D3300084D3300084D3300080000000078
:1000F0000000000000000000000000000000000000
:0C01000000000000000000005FF808F1A3
:1001100010B5054C237833B9044B13B10448AFF341
:1001200000800123237010BDDC01002000000000CE
:100130002C54000808B5034B1BB103490348AFF327
:10014000008008BD00000000E00100202C540008E1
:10015000034613F8012B002AFBD1181A0138704707
:1001600081F0004102E000BF83F0004330B54FEA68
:1001700041044FEA430594EA050F08BF90EA020FD5
:100180001FBF54EA000C55EA020C7FEA645C7FEA68
:10019000655C00F0E2804FEA5454D4EB5555B8BF8B
:1001A0006D420CDD2C4480EA020281EA030382EAFC
:1001B000000083EA010180EA020281EA0303362D8E
:1001C00088BF30BD11F0004F4FEA01314FF4801C61
:1001D0004CEA113102D0404261EB410113F0004F73
:1001E0004FEA03334CEA133302D0524263EB43032A
:1001F00094EA050F00F0A780A4F10104D5F1200EC8
:100200000DDB02FA0EFC22FA05F2801841F1000122
:1002100003FA0EF2801843FA05F359410EE0A5F1F6
:1002200020050EF1200E012A03FA0EFC28BF4CF027
:10023000020C43FA05F3C01851EBE37101F00045DD
:1002400007D54FF0000EDCF1000C7EEB00006EEBEA
:100250000101B1F5801F1BD3B1F5001F0CD3490874
:100260005FEA30004FEA3C0C04F101044FEA4452CB
:1002700012F5800F80F09A80BCF1004F08BF5FEA52
:10028000500C50F1000041EB045141EA050130BD32
:100290005FEA4C0C404141EB010111F4801FA4F1D5
:1002A0000104E9D191F0000F04BF01460020B1FA2A
:1002B00081F308BF2033A3F10B03B3F120020CDA62
:1002C0000C3208DD02F1140CC2F10C0201FA0CF040
:1002D00021FA02F10CE002F11402D8BFC2F1200CA5
:1002E00001FA02F120FA0CFCDCBF41EA0C0190405B
:1002F000E41AA2BF01EB0451294330BD6FEA0404A4
:100300001F3C1CDA0C340EDC04F11404C4F120028E
:1003100020FA04F001FA02F340EA030021FA04F3A0
:1003200045EA030130BDC4F10C04C4F1200220FAF7
:1003300002F001FA04F340EA0300294630BD21FA35
:1003400004F0294630BD94F0000F83F4801306BFFB
:1003500081F480110134013D4EE77FEA645C18BFEF
:100360007FEA655C29D094EA050F08BF90EA020F86
:1003700005D054EA000C04BF1946104630BD91EA7E
:10038000030F1EBF0021002030BD5FEA545C05D181
:100390004000494128BF41F0004130BD14F58004C0
:1003A0003CBF01F5801130BD01F0004545F0FE4134
:1003B00041F470014FF0000030BD7FEA645C1ABF69
:1003C000194610467FEA655C1CBF0B46024650EAA0
:1003D000013406BF52EA033591EA030F41F40021CC
:1003E00030BD00BF90F0000F04BF0021704730B552
:1003F0004FF4806404F132044FF000054FF0000127
:1004000050E700BF90F0000F04BF0021704730B5E7
:100410004FF4806404F1320410F0004548BF4042BC
:100420004FF000013EE700BF42004FEAE2014FEA11
:1004300031014FEA02701FBF12F07F4393F07F4FEC
:1004400081F06051704732F07F4208BF704793F0EF
:100450007F4F04BF41F40021704730B54FF4607402
:1004600001F0004521F000411CE700BF50EA010205
:1004700008BF704730B54FF000050AE050EA0102AE
:1004800008BF704730B511F0004502D5404261EB1E
:1004900041014FF4806404F132045FEA915C3FF45F
:1004A000D8AE4FF003025FEADC0C18BF03325FEAFC
:1004B000DC0C18BF033202EBDC02C2F1200300FAAD
:1004C00003FC20FA02F001FA03FE40EA0E0021FAD2
:1004D00002F11444BDE600BF70B54FF0FF0C4CF4C0
:1004E000E06C1CEA11541DBF1CEA135594EA0C0F72
:1004F00095EA0C0F00F0DEF82C4481EA030621EAAD
:100500004C5123EA4C5350EA013518BF52EA0335E7
:1005100041F4801143F4801338D0A0FB02CE4FF099
:100520000005E1FB02E506F00042E0FB03E54FF0C9
:100530000006E1FB03569CF0000F18BF4EF0010EC1
:10054000A4F1FF04B6F5007F64F5407404D25FEABD
:100550004E0E6D4146EB060642EAC62141EA555170
:100560004FEAC52040EA5E504FEACE2EB4F1FD0CB2
:1005700088BFBCF5E06F1ED8BEF1004F08BF5FEA30
:10058000500E50F1000041EB045170BD06F00046E2
:1005900046EA010140EA020081EA0301B4EB5C048F
:1005A000C2BFD4EB0C0541EA045170BD41F4801187
:1005B0004FF0000E013C00F3AB8014F1360FDEBFAC
:1005C000002001F0004170BDC4F10004203C35DA88
:1005D0000C341BDC04F11404C4F1200500FA05F30B
:1005E00020FA04F001FA05F240EA020001F00042AC
:1005F00021F0004110EBD37021FA04F642EB060122
:100600005EEA430E08BF20EAD37070BDC4F10C044B
:10061000C4F1200500FA04F320FA05F001FA04F20F
:1006200040EA020001F0004110EBD37041F10001FB
:100630005EEA430E08BF20EAD37070BDC4F1200506
:1006400000FA05F24EEA020E20FA04F301FA05F26E
:1006500043EA020321FA04F001F0004121FA04F216
:1006600020EA020000EBD3705EEA430E08BF20EAE6
:10067000D37070BD94F0000F0FD101F00046400020
:1006800041EB010111F4801F08BF013CF7D041EAA2
:10069000060195F0000F18BF704703F000465200A6
:1006A00043EB030313F4801F08BF013DF7D043EA77
:1006B0000603704794EA0C0F0CEA135518BF95EA2D
:1006C0000C0F0CD050EA410618BF52EA4306D1D1B4
:1006D00081EA030101F000414FF0000070BD50EAD3
:1006E000410606BF1046194652EA430619D094EA5D
:1006F0000C0F02D150EA013613D195EA0C0F05D147
:1007000052EA03361CBF104619460AD181EA03019A
:1007100001F0004141F0FE4141F470014FF0000052
:1007200070BD41F0FE4141F4780170BD70B54FF0ED
:10073000FF0C4CF4E06C1CEA11541DBF1CEA13556D
:1007400094EA0C0F95EA0C0F00F0A7F8A4EB05044F
:1007500081EA030E52EA03354FEA013100F0888046
:100760004FEA03334FF0805545EA131343EA12630F
:100770004FEA022245EA111545EA10654FEA0026C4
:100780000EF000419D4208BF964244F1FD0404F57D
:10079000407402D25B084FEA3202B61A65EB0305D9
:1007A0005B084FEA32024FF480104FF4002CB6EB96
:1007B000020E75EB030E22BFB61A754640EA0C0016
:1007C0005B084FEA3202B6EB020E75EB030E22BF56
:1007D000B61A754640EA5C005B084FEA3202B6EB97
:1007E000020E75EB030E22BFB61A754640EA9C0056
:1007F0005B084FEA3202B6EB020E75EB030E22BF26
:10080000B61A754640EADC0055EA060E18D04FEAE3
:10081000051545EA16754FEA06164FEAC30343EA83
:1008200052734FEAC2025FEA1C1CC0D111F4801F50
:100830000BD141EA00014FF000004FF0004CB6E749
:1008400011F4801F04BF01430020B4F1FD0C88BFE8
:10085000BCF5E06F3FF6AFAEB5EB030C04BFB6EBF3
:10086000020C5FEA500C50F1000041EB045170BDE6
:100870000EF0004E4EEA113114EB5C04C2BFD4EB13
:100880000C0541EA045170BD41F480114FF0000E97
:10089000013C90E645EA060E8DE60CEA135594EA13
:1008A0000C0F08BF95EA0C0F3FF43BAF94EA0C0F16
:1008B0000AD150EA01347FF434AF95EA0C0F7FF48B
:1008C00025AF104619462CE795EA0C0F06D152EADF
:1008D00003353FF4FDAE1046194622E750EA4106C3
:1008E00018BF52EA43067FF4C5AE50EA41047FF4D4
:1008F0000DAF52EA43057FF4EBAE12E74FF0FF3C39
:1009000006E000BF4FF0010C02E000BF4FF0010C09
:100910004DF804CD4FEA410C7FEA6C5C4FEA430C82
:1009200018BF7FEA6C5C1BD001B050EA410C0CBFD1
:1009300052EA430C91EA030F02BF90EA020F002033
:10094000704710F1000F91EA030F58BF994208BF9A
:1009500090422CBFD8176FEAE37040F00100704757
:100960004FEA410C7FEA6C5C02D150EA013C07D1AE
:100970004FEA430C7FEA6C5CD6D152EA033CD3D0F9
:100980005DF8040B704700BF8446104662468C46F3
:100990001946634600E000BF01B5FFF7B7FF002826
:1009A00048BF10F1000F01BD4DF808EDFFF7F4FF4F
:1009B0000CBF012000205DF808FB00BF4DF808EDDA
:1009C000FFF7EAFF34BF012000205DF808FB00BFFD
:1009D0004DF808EDFFF7E0FF94BF012000205DF81F
:1009E00008FB00BF4DF808EDFFF7CEFF94BF0120D4
:1009F00000205DF808FB00BF4DF808EDFFF7C4FFCD
:100A000034BF012000205DF808FB00BF4FEA410C15
:100A10007FEA6C5C02D150EA013C0AD14FEA430CF8
:100A20007FEA6C5C02D152EA033C02D14FF0000035
:100A300070474FF0010070474FEA410212F5001273
:100A400015D211D56FF47873B3EB625212D94FEA15
:100A5000C12343F0004343EA505311F0004F23FAFF
:100A600002F018BF404270474FF00000704750EA54
:100A7000013005D111F0004008BF6FF00040704711
:100A80004FF00000704700BF4FEA4102B2F1E0436F
:100A900024BFB3F5001CDCF1FE5C0DD901F0004C65
:100AA0004FEAC0024CEA5070B2F1004F40EB8300B5
:100AB00008BF20F00100704711F0804F21D113F1E1
:100AC0003872BCBF01F00040704741F480114FEA1A
:100AD0005252C2F11802C2F1200C10FA0CF320FAA3
:100AE00002F018BF40F001004FEAC1234FEAD323C0
:100AF00003FA0CFC40EA0C0023FA02F34FEA43032A
:100B0000CCE77FEA625307D150EA01331EBF4FF0B2
:100B1000FE4040F44000704701F0004040F0FE40CD
:100B200040F40000704700BF80F0004002E000BFCA
:100B300081F0004142001FBF5FEA410392EA030FC8
:100B40007FEA226C7FEA236C6AD04FEA1262D2EB12
:100B50001363C1BFD218414048404140B8BF5B4217
:100B6000192B88BF704710F0004F40F4000020F0B0
:100B70007F4018BF404211F0004F41F4000121F0C6
:100B80007F4118BF494292EA030F3FD0A2F1010210
:100B900041FA03FC10EB0C00C3F1200301FA03F14E
:100BA00000F0004302D5494260EB4000B0F5000F71
:100BB00013D3B0F1807F06D340084FEA310102F130
:100BC0000102FE2A51D2B1F1004F40EBC25008BFE2
:100BD00020F0010040EA03007047490040EB0000AC
:100BE00010F4000FA2F10102EDD1B0FA80FCACF1DB
:100BF000080CB2EB0C0200FA0CF0AABF00EBC250DA
:100C000052421843BCBFD0401843704792F0000FC7
:100C100081F4000106BF80F400000132013BB5E71A
:100C20004FEA41037FEA226C18BF7FEA236C21D090
:100C300092EA030F04D092F0000F08BF08467047F5
:100C400090EA010F1CBF0020704712F07F4F04D1C3
:100C5000400028BF40F00040704712F100723CBFD6
:100C600000F50000704700F0004343F0FE4040F400
:100C7000000070477FEA226216BF08467FEA2363BE
:100C80000146420206BF5FEA412390EA010F40F4A9
:100C9000800070474FF0000304E000BF10F00043F5
:100CA00048BF40425FEA000C08BF704743F09643DC
:100CB00001464FF000001CE050EA010208BF7047F7
:100CC0004FF000030AE000BF50EA010208BF70477E
:100CD00011F0004302D5404261EB41015FEA010C93
:100CE00002BF84460146002043F0B64308BFA3F18B
:100CF0008053A3F50003BCFA8CF2083AA3EBC2536D
:100D000010DB01FA02FC634400FA02FCC2F120028B
:100D1000BCF1004F20FA02F243EB020008BF20F0C2
:100D20000100704702F1200201FA02FCC2F1200228
:100D300050EA4C0021FA02F243EB020008BF20EA1D
:100D4000DC70704742000ED2B2F1FE4F0BD34FF071
:100D50009E03B3EB126209D44FEA002343F0004331
:100D600023FA02F070474FF00000704712F1610F54
:100D700001D1420202D14FF0FF3070474FF0000026
:100D8000704700BF38B50E4B054618784FF47A739C
:100D9000B3FBF0F30B4A1068B0FBF3F000F08EF8F1
:100DA000044658B90F2D09D8024629464FF0FF30A6
:100DB00000F042F82046044B1D6038BD0120FCE7DE
:100DC000000000200800002004000020074A08B5A9
:100DD0001368032043F01003136000F01BF8002099
:100DE000FFF7D0FF02F046F9002008BD00200240C6
:100DF000034A044B11681B780B441360704700BF13
:100E00000C02002000000020014B1868704700BF52
:100E10000C020020074A0002D36800F4E06023F4CB
:100E2000E0631B041B0C43F0BF6343F40033034334
:100E3000D360704700ED00E0174B70B5DC684FF0F1
:100E4000FF36C4F30224C4F10705042D04F10403A2
:100E500028BF0425062B98BF002406FA05F388BF97
:100E6000033C21EA0303A34006FA04F422EA040443
:100E7000002843EA0403A8BF00F160404FEA0313CF
:100E8000B8BF064ADBB2ABBF00F5614000F00F000F
:100E900080F80033135470BD00ED00E014ED00E065
:100EA000002808DB0123420900F01F0003FA00F0CC
:100EB000014B43F82200704700E100E00138B0F137
:100EC000807F0AD2F021064B064A586082F8231030
:100ED0000020072298601A6070470120704700BF09
:100EE00010E000E000ED00E02DE9F74F0024264679
:100EF000654BDFF8A4C1DFF8A4E10A6832FA06F511
:100F000002D103B0BDE8F08F4FF0010808FA06F8EF
:100F100002EA080290457ED14D68122D00F0A980AA
:100F200000F28280022D00F0A18076D8002D00F022
:100F30008880012D00F098804FF00F09FF2A93BFA1
:100F4000824606F18045083DD0F800B092BFB5005A
:100F5000D0F804B0AD0009FA05F82BEA080804FA45
:100F600005F588BF00F1040A48EA0505CAF80050F3
:100F7000D1F804A01AF0805F4DD0444F26F003084A
:100F8000BD6908F1804845F00105BD61BD6908F5FE
:100F9000803805F00105019506F0030B019D4FEA2D
:100FA0008B0BD8F8085009FA0BF925EA0909384DD6
:100FB000A84263D005F58065A84261D005F580653B
:100FC000A8425FD005F58065A8420CBF0325042523
:100FD00005FA0BF545EA0905C8F808501D681AF42A
:100FE000803F14BF154395431D605D681AF4003FB0
:100FF00014BF154395435D609D681AF4801F14BFAC
:10100000154395439D60DD681AF4001F14BF2A4301
:1010100025EA0202DA6001366FE7032D22D0112D96
:101020008AD1CC68043487E71A4FBD4209D012D860
:10103000DFF86C904D4504D009F580394D457FF4BB
:101040007BAF8C68C4B1012C0CBFC0F81080C0F815
:101050001480082470E76545F3D07545F1D0DFF8BA
:101060004490EBE7002467E7CC6865E7CC68083478
:1010700062E7CC680C345FE704245DE70025A7E74E
:101080000125A5E70225A3E7000401400010024066
:101090000008014000002110000031100000321053
:1010A0000000111000002210016800224B6913F4A7
:1010B000806310D06FF480634B612023026380F85B
:1010C0003D3080F83E20036C80F83C2043F0040360
:1010D000036401207047184670472DE9F04104462B
:1010E000164698468FB22568686937EA000017D01F
:1010F0006B695A0516D52B68202243F400732B60C8
:101100006FF480636B610023236384F83D2084F8CF
:101110003E30226C42F004020120226484F83C300C
:10112000BDE8F081731CDFD0FFF76EFEA0EB080076
:10113000B04201D8002ED6D100232022236384F8A8
:101140003D2084F83E30226C42F02002E4E770B586
:1011500004460D46164623685B695B0701D50020EF
:1011600070BD2046FFF7A0FFA8B96A1CF3D0FFF7B7
:101170004BFE801BA84201D8002DECD10023202279
:10118000236384F83D2084F83E30226C84F83C30A0
:1011900042F0200222640120E2E770B504460D46C9
:1011A00016462068436913F0400301D0002010E088
:1011B0004269D2060ED56FF01002426120222363ED
:1011C00084F83D2084F83E30226C0120226484F8AB
:1011D0003C3070BDFFF718FE801BA84201D8002DDF
:1011E000DFD100232022236384F83D2084F83E30A1
:1011F000226C42F02002E8E72DE9F84304469046CD
:101200001F46089E4FEA11498DB22168B9F1010FBE
:101210000CBF4B698B6935EA03030CBF0123002324
:10122000984501D0002016E07B1CEFD0FFF7ECFDC5
:10123000801BB84201D8002FE7D1002320220120D3
:10124000236384F83D2084F83E30226C84F83C30DF
:1012500042F020022264BDE8F88370B504460D46D2
:10126000164623685B691B0601D5002070BD204629
:10127000FFF71AFFA8B96A1CF3D0FFF7C5FD801B62
:10128000A84201D8002DECD100232022236384F84A
:101290003D2084F83E30226C84F83C3042F020023D
:1012A00022640120E2E700002DE9FF4115460268B3
:1012B000984613680B9E43F4807313600F460A9B95
:1012C000009600224FF001110446FFF795FF2368B6
:1012D00038B11B68DB0502D54FF40073236403208B
:1012E0000AE007F0FE071F610A9A334618492046B4
:1012F000FFF7F3FE18B1012004B0BDE8F0812368C8
:1013000003905A690A9903929B69324603932046D7
:10131000039BFFF7A2FF40B1236C042B01BF22689F
:10132000136843F400731360E5E7B8F1010F236815
:1013300002D1EDB21D61DFE72A0A1A610A9932462D
:101340002046FFF78AFF0028E6D12368F1E700BFB7
:10135000020001002DE9FF419846036816461A680D
:101360000B9D42F480621A601A680F4642F4807244
:101370001A604FF001110A9B009500220446FFF706
:101380003BFF236848B11B68DB0502D54FF40073AF
:101390002364032004B0BDE8F081FFB207F0FE0231
:1013A0001A612A492B460A9A2046FFF796FE08B191
:1013B0000120EFE7236803905A690A9903929B6919
:1013C0002A4603932046039BFFF747FF40B1236C57
:1013D000042B01BF2268136843F400731360E7E72E
:1013E000B8F1010F236825D1F6B21E612A460A9989
:1013F0002046FFF732FF02460028E8D12168204648
:101400000B6843F480730B600A9B00954FF0011149
:10141000FFF7F2FE23680028B5D147F001071F61EE
:101420000A9A2B4609492046FFF757FE003018BF9D
:101430000120AFE7320A1A610A992A462046FFF7CF
:101440000CFF0028C3D12368CEE700BF02000100D3
:1014500070B5044608B9012070BD90F83D3003F026
:10146000FF021BB980F83C2001F026FE242384F8FB
:101470003D3023681A6822F001021A601A6842F4AB
:1014800000421A601A6822F400421A6000F0CEFC92
:101490006368414A93424DD8404A9042DBD9404963
:1014A0002268B0FBF1F1556825F03F050D4355600A
:1014B000156A25F03F05013129431162D169364D86
:1014C00021F44F41AB4221F0FF0100F1FF3048D839
:1014D0005B00B0FBF3F0431CC3F30B03042B38BFDA
:1014E00004230B43D3611168D4E9073021F0C00114
:1014F00003430B4313609168D4E9030321F40341D0
:10150000034321F0FF010B439360D168D4E9053018
:1015100021F0FF0103430B43D3601368002043F025
:10152000010313602023206484F83D30206384F895
:101530003E0091E71B4A90428DD9194E4FF49671A7
:10154000B0FBF6F622687143556825F03F05354338
:101550004FF47A765560156AB1FBF6F125F03F0538
:10156000A9E7A56855B903EB4303B0FBF3F0431CAF
:10157000C3F30B036BB143F40043B2E719256B438C
:10158000B0FBF3F0431CC3F30B0313B143F440432C
:10159000A7E70123A5E700BFA08601007F841E0006
:1015A00040420F00FF083D002DE9F74304469946ED
:1015B0000F4690460C9EFFF727FC94F83D300546F9
:1015C000202B03D0022003B0BDE8F0830090192344
:1015D00001223B492046FFF70FFE0028F2D194F884
:1015E0003C30012BEED0012384F83C3023682046A8
:1015F0001A68D10758BF1A6839465CBF42F0010229
:101600001A601A6822F400621A60212384F83D30BF
:10161000402384F83E30002323640A9BCDE9006513
:101620006362BDF82C3042466385638D2385254B6C
:10163000E3624B46FFF738FE00282AD00120C2E7BC
:10164000FFF70BFE40B1236C042B01BF2268136827
:1016500043F400731360F1E7636A27681A4612F8CF
:10166000011B39616262628D218D013A92B26285FD
:101670007A69481E80B2520720850AD548B15A7847
:1016800002333A616362638D0239013B9BB221856B
:101690006385238D2A4631462046002BD0D1FFF7A3
:1016A00056FD0028CFD12268136843F400731360FD
:1016B000202384F83C0084F83D3084F83E0082E723
:1016C000020010000000FFFF2DE9F04399460023BF
:1016D000044689B003930D469046129FFFF794FB92
:1016E00094F83D300646202B04D00225284609B048
:1016F000BDE8F0830090192301228E492046FFF7B0
:101700007BFD0028F1D194F83C30012BEDD0012372
:1017100084F83C30236829461A682046D2075EBF09
:101720001A6842F001021A601A6822F400621A6014
:10173000222384F83D30402384F83E300023236484
:10174000109BCDE900766362BDF844304246638564
:10175000638D2385784BE3624B46FFF7FBFD05461F
:1017600008B10125C2E7228D236892B904905A6915
:1017700004929A690492049A1A6842F400721A60F8
:10178000202384F83D30002384F83E3084F83C3038
:10179000ACE7012A32D11A6822F480621A6072B66C
:1017A000236805905A6905929A690592059A1A6804
:1017B00042F400721A6062B6DFF88081DFF880912F
:1017C000238D002BDCD0032B00F29580012B31D12F
:1017D000324639462046FFF7E0FC0028C1D1236895
:1017E0001A69636A1A70636A01336362238D013B6D
:1017F0002385638D013B9BB26385E1E7022A1A686A
:101800000ED142F400621A6072B6236806905A69DB
:1018100006929A690692069A1A6822F48062C9E7CB
:1018200042F480621A6007905A6907929B69079395
:10183000079BC1E7022B00963B464FF00002414652
:10184000204618D1FFF7D8FC00288AD172B6236849
:101850001A6842F400721A601A69636A1A70636A3D
:1018600001336362238D013B2385638D013B9BB272
:10187000638562B6B3E7FFF7BFFC00287FF471AF62
:101880002268136823F48063136072B623681A69B0
:10189000636A1A7046F2A812616A4B1C6362238D58
:1018A000013B2385638D013B9BB26385D9F80030F2
:1018B000B3FBF2F2232353430393039B013B0393B4
:1018C000039B6BB92022236384F83D2084F83E30CB
:1018D000226C42F02002226462B684F83C3040E779
:1018E00023685A695007E8D51A6842F400721A60F2
:1018F0001B694B70B3E7324639462046FFF74DFC73
:1019000000287FF42EAF23681A69636A1A70626A2E
:10191000531C6362238D013B2385638D013B9BB286
:1019200063852368596949077FF54AAF1B6953707E
:1019300059E700BF020010000000FFFF0400010093
:10194000080000202DE9F341054608B901203CE0DC
:101950000368DB0710D42B689F075DD42B68190739
:1019600000F194802B685A0700F1BE80E8690028D6
:1019700040F02C81002028E08F4C636803F00C03BA
:10198000042B07D0636803F00C03082B09D16368AC
:10199000DE0306D523689C03DDD56B68002BDAD106
:1019A000D4E76B68B3F5803F12D1236843F48033EA
:1019B0002360FFF729FA064623689803CBD4FFF784
:1019C00023FA801B6428F7D9032002B0BDE8F08118
:1019D0009BB9236823F480332360236823F4802396
:1019E0002360FFF711FA064623689903B3D5FFF782
:1019F0000BFA801B6428F7D9E6E7B3F5A02F23681C
:101A000003D143F480232360CFE723F480332360A2
:101A1000236823F48023CBE7674C636813F00C0F33
:101A200007D0636803F00C03082B10D16368DA0356
:101A30000DD423689B0702D52B69012B86D123681F
:101A40006A6923F0F80343EAC203236086E72A6940
:101A50005A4B6AB101221A60FFF7D6F9064623688D
:101A60009F07ECD4FFF7D0F9801B0228F7D9ABE72A
:101A70001A60FFF7C9F90646236898077FF56EAF2D
:101A8000FFF7C2F9801B0228F6D99DE7AA694A4CE4
:101A90004B4BDAB101221A60FFF7B6F90646636ACA
:101AA0009B070DD54FF4FA52464B1B68B3FBF2F37C
:101AB000019300BF019B5A1E0192002BF9D151E7FF
:101AC000FFF7A2F9801B0228E9D97DE71A60FFF72A
:101AD0009BF90646636A9F077FF544AFFFF794F9C9
:101AE000801B0228F6D96FE7334CE369D80024D471
:101AF0000127E36943F08053E361E36903F0805316
:101B00000093009B304E3368D90518D5EB68012B44
:101B100026D1236A43F001032362FFF775F941F2EE
:101B200088368046236A9B073FD5002F3FF41EAFBF
:101B3000E36923F08053E36118E70027E2E73368A5
:101B400043F480733360FFF75FF980463368DA054A
:101B5000DCD4FFF759F9A0EB08006428F6D933E785
:101B6000ABB9236A41F2883823F001032362236A68
:101B700023F004032362FFF747F90646236A980718
:101B8000D3D5FFF741F9801B4045F7D91CE7052B5A
:101B9000236A03D143F004032362BAE723F001036D
:101BA0002362236A23F00403B6E7FFF72DF9A0EBC5
:101BB0000800B042B6D907E70010024000004242D8
:101BC0008004424208000020007000402A4B5A68FE
:101BD0001C4602F00C02082A3DD00023274E0228A2
:101BE00033602BD1FFF710F90746236899011FD402
:101BF0002B6AB3F5803F05D16268A96822F40032F0
:101C00000A436260696A62680B4322F474121343E8
:101C1000636001233360FFF7F7F8054623689A01F4
:101C20003FF5A8AEFFF7F0F8401B0228F6D9CBE647
:101C3000FFF7EAF8C01B0228D7D9C5E6FFF7E4F89A
:101C4000054623689B017FF595AEFFF7DDF8401B45
:101C50000228F6D9B8E601283FF4B7AE58682B6AD7
:101C600000F480329A427FF471AE6B6A00F4701017
:101C7000C01A18BF0120A8E60010024060004242CE
:101C800030B5184B87B002AC03F110052246186836
:101C90005968083303C2AB421446F7D140F201231E
:101CA0001149ADF804304B6803F00C02082A17D133
:101CB000C3F3834206A80244DB0312F8102C0CD5B0
:101CC0004B680A48C3F34043504306AA134413F831
:101CD000143CB0FBF3F007B030BD05485043FAE7C1
:101CE0000248F8E7485400080010024000127A0049
:101CF00000093D002DE9F0410D46044610B90120D0
:101D0000BDE8F081444A136803F007038B4228D3EF
:101D100021688E0730D4CA0743D43F4A136803F0C2
:101D20000703AB4265D822683C4D12F0040F6CD11A
:101D3000130706D56B68226923F4605343EAC20394
:101D40006B60FFF79DFF6B68354AC3F30313D35CE9
:101D5000D840344B1860344B1868FFF713F8002054
:101D6000CEE7136823F007030B431360136803F0F7
:101D700007038B42C3D1CBE7284B11F0040F1EBFE2
:101D80005A6842F4E0625A60080742BF5A6842F457
:101D900060525A605A68A06822F0F00202435A600A
:101DA000B9E762681D4E012A33681AD113F4003F67
:101DB000A5D0736841F2883823F00303134373609E
:101DC000FFF722F807467368626803F00C03B3EB71
:101DD000820FA2D0FFF718F8C01B4045F3D90320AB
:101DE0008EE7022A02D113F0007FE1E713F0020F21
:101DF000DEE7136823F007032B431360136803F037
:101E00000703AB427FF47BAF8DE76B68E16823F497
:101E1000E0630B436B608BE7002002400010024040
:101E2000655400080800002004000020044B054A07
:101E30005B68C3F30223D35C034A1068D840704741
:101E4000001002407554000808000020044B054AA9
:101E50005B68C3F3C223D35C034A1068D840704761
:101E6000001002407554000808000020036A70B595
:101E700023F001030362036A446882690D6822F05B
:101E800073022A438D6823F002032B430A4DA842B4
:101E90000BD1CD6823F008032B4324F44074D1E91F
:101EA0000556354323F004032C43446082614A689D
:101EB0004263036270BD00BF002C0140036A70B52D
:101EC00023F480730362036A4468C2690D6822F0D8
:101ED00073022A438D6823F4007343EA05230B4DF4
:101EE000A8420DD1CD6823F4006343EA052324F40E
:101EF0004054D1E90556354323F4806344EA051480
:101F00004460C2614A68C263036270BD002C014034
:101F1000036A30B523F480530362036A4468C269DC
:101F20000D6822F4E64242EA05228D6823F400534C
:101F300043EA0533064DA84202BF4D6924F48044AC
:101F400044EA85144460C2614A680264036230BD99
:101F5000002C014090F83D30012B20D1022380F865
:101F60003D300368DA6842F00102DA600D4A9342BC
:101F70000AD0B3F1804F07D0A2F59432934203D038
:101F800002F58062934204D19A6802F00702062AA1
:101F900003D01A6842F001021A6000207047012045
:101FA000704700BF002C0140704770477047704772
:101FB0007047036810B51A69044691070ED5DA68B0
:101FC00092070BD56FF002021A6101229B6902771A
:101FD0009B0777D0FFF7EAFF0023237723681A696E
:101FE000500710D5DA6851070DD56FF004021A6159
:101FF00002229B69227713F4407F204668D0FFF7C6
:10200000D5FF0023237723681A6912070FD5DA68F2
:1020100010070CD56FF008021A610422DB692277E1
:10202000990720465AD0FFF7C1FF00232377236882
:102030001A69D20610D5DA68D0060DD56FF01002F5
:102040001A610822DB69227713F4407F20464BD0C7
:10205000FFF7ACFF0023237723681A69D10708D55F
:10206000DA68D20705D56FF0010220461A6100F048
:10207000E3FD23681A69100608D5DA68110605D54C
:102080006FF0800220461A6100F0A5FA23681A69F1
:10209000520608D5DA68500605D56FF04002204692
:1020A0001A61FFF785FF23681A69910622D5DA685D
:1020B00092061FD56FF020022046BDE810401A613D
:1020C00000F088BAFFF771FF2046FFF770FF83E743
:1020D000FFF76BFF2046FFF76AFF92E7FFF765FF08
:1020E0002046FFF764FFA0E7FFF75FFF2046FFF7FA
:1020F0005EFFAFE710BD00001A4A036890420AD0A5
:10210000B0F1804F07D0A2F59432904203D002F58F
:102110008062904215D14A6823F070031343114A3C
:1021200090420AD0B0F1804F07D0A2F5943290428D
:1021300003D002F58062904203D1CA6823F4407351
:1021400013434A6923F08003134303608B68C3621F
:102150000B688362034B984204BF0B69036301233E
:1021600043617047002C014010B5044630B390F82D
:102170003D3003F0FF021BB980F83C2000F0D8FF8F
:102180000223206884F83D30211DFFF7B5FF0123AD
:10219000002084F8463084F83E3084F83F3084F8DC
:1021A000403084F8413084F8423084F8433084F879
:1021B000443084F8453084F83D3010BD0120FCE700
:1021C00010B5044630B390F83D3003F0FF021BB960
:1021D00080F83C20FFF7E8FE0223206884F83D30B9
:1021E000211DFFF789FF0123002084F8463084F881
:1021F0003E3084F83F3084F8403084F8413084F831
:10220000423084F8433084F8443084F8453084F810
:102210003D3010BD0120FCE7036A70B523F01003C8
:102220000362036A446882690D6822F4E64242EA66
:1022300005228D6823F0200343EA05130B4DA842C5
:102240000DD1CD6823F0800343EA051324F44064E4
:10225000D1E90556354323F0400344EA8504446040
:1022600082614A688263036270BD00BF002C014036
:1022700038B590F83C300446012B54D0012380F847
:102280003C300C2A18D8DFE802F0071717171B1785
:1022900017172C1717173D000068FFF7E7FD236895
:1022A00009699A6942F008029A619A6922F0040267
:1022B0009A619A690A439A61002084F83C0038BD0B
:1022C0000068FFF7A9FF236809699A6942F4006270
:1022D0009A619A6922F480629A619A6942EA0122BB
:1022E000E9E70068FFF7EAFD23680969DA6942F067
:1022F0000802DA61DA6922F00402DA61DA690A4373
:10230000DA61D9E70068FFF703FE23680969DA6933
:1023100042F40062DA61DA6922F48062DA61DA6931
:1023200042EA0122ECE70220C9E710B584680A43BB
:1023300024F47F4442EA03232343836010BD90F8D2
:102340003C3070B5012B04464FF0020019D0012338
:1023500084F83D00206884F83C30836823F47F4390
:1023600023F0770383600B68402B65D015D8102BC2
:102370000CD007D853B10123002084F83D3084F8F5
:102380003C0070BD202B01D0302BF4D1826843F08B
:10239000070322F0700213431AE0602B34D019D8DF
:1023A000502BE8D14A68CE68016A056A21F00A011B
:1023B00025F00105056283690A4323F0F00343EA2F
:1023C000061383610262836823F0700343F05703AE
:1023D0008360D0E7702B0CD0B3F5005FCBD1CB6816
:1023E000D1E90121FFF7A1FF2268936843F48043FC
:1023F00008E0CB68D1E90121FFF797FF22689368D5
:1024000043F077039360B6E74D68CE68016A21F028
:10241000100101628269036A22F4704223F0A00372
:1024200043EA051342EA063282610362836823F0BD
:10243000700343F06703CBE74A68CE68016A056A18
:1024400021F00A0125F00105056283690A4323F0A2
:10245000F00343EA061383610262836823F070038A
:1024600043F04703B4E710B50124036A01F01F01EC
:102470008C4023EA04030362036A8A401A4302621F
:1024800010BD000010B5044629B990F83E30012B6C
:102490001DD0012010BD042907D190F83F30012B39
:1024A000F7D1022380F83F3014E0082907D190F8D3
:1024B0004030012BEDD1022380F840300AE090F843
:1024C0004130012BE5D1022380F8413002E00223A4
:1024D00080F83E3001222068FFF7C5FF23680E4ACE
:1024E00093420AD15A6C42F400425A649A6802F04C
:1024F0000702062A0BD10020CCE7B3F1804FF5D0BC
:10250000064A9342F2D002F580629342EED01A68F6
:1025100042F001021A60EEE7002C01400004004086
:10252000FFF7B0BF90F83C3030B5012B4FF00203FD
:1025300025D0012280F83D3003680D685C6880F882
:102540003C2024F070042C439A685C600D4CA3423C
:102550000AD0B3F1804F07D0A4F59434A34203D03E
:1025600004F58064A34204D1496822F080020A4342
:102570009A60012380F83D30002380F83C301846F3
:1025800030BD00BF002C014090F83C30012B1FD023
:10259000CB688A6823F4407313434A6823F480634A
:1025A00013430A6823F4006313430A6923F4805336
:1025B00013434A6923F400531343CA6923F4804345
:1025C000134302685364002380F83C301846704778
:1025D000022070477047704710B504460368C16811
:1025E0001A6922F440520A431A6182680069D96864
:1025F0000243606921F4B05121F00C0102430A4307
:10260000DA605A69A16922F440720A435A610E4A9B
:10261000934215D1FFF71AFC1923584363686422CB
:102620009B00B0FBF3F0B0FBF2F102FB11031B01C6
:102630003233B3FBF2F3246803EB0113A36010BD44
:10264000FFF7F4FBE8E700BF00380140F8B50446A7
:102650000E4617461D4621680B6836EA030301D172
:10266000002014E06B1CF7D095B923680320DA68CA
:1026700022F4D072DA605A6922F001025A612023F2
:1026800084F8393084F83A30002384F83830F8BDC3
:10269000FEF7BAFBC01B8542DDD2E6E710B5044663
:1026A00040B390F8393003F0FF021BB980F83820AE
:1026B00000F096FD2423226884F83930D368204640
:1026C00023F40053D360FFF787FF236800201A69C3
:1026D00022F490421A615A6922F02A025A61DA6899
:1026E00042F40052DA602023E06384F8393084F841
:1026F0003A3010BD0120FCE72DE9F843984690F8E8
:1027000039300446202B0E4691464AD1002946D046
:10271000002A44D090F83830012B42D00123002504
:1027200080F838302123C56380F83930FEF76CFB20
:10273000A3680746B3F5805FA4F82490A4F8269018
:1027400003D123690BB935461E46002384F838307F
:10275000E38C9BB253B943463A4640212046FFF7EB
:1027600075FF50B9202384F8393007E043463A46D4
:1027700080212046FFF76AFF10B10320BDE8F883EF
:1027800022684EB935F8023BC3F308035360E38C6B
:10279000013B9BB2E384DBE716F8013BF6E701203F
:1027A000ECE70220EAE7000000231946024AD15470
:1027B0000133192BFBD17047E4020020F0B501244E
:1027C0004FF47A7687B00DF116030093CDE90146F8
:1027D00023467522D0211C48FEF776FF9DF816305F
:1027E000682B2ED1002706AD05F8017D23466B220C
:1027F000D021CDE9014600951348FEF7D5FE072309
:1028000019228DF81730D0212346CDE901460095D5
:102810000D48FEF7C9FE23461C22D021CDE9014612
:10282000009509488DF81770FEF7BEFECDE9014608
:10283000009523461B22D02103488DF81770FEF720
:10284000B3FE07B0F0BD00BF24020020000000006E
:1028500006234FF47A7230B587B0CDE9013204AB6C
:1028600000933B220123D0212348FEF72DFF9DF842
:1028700010309DF811009DF8135040EA03201F4BC3
:1028800000B218809DF812309DF8154045EA0325E6
:102890001B4B2DB21D809DF8143044EA0324194BC4
:1028A00024B21C80FDF7AEFD0022174BFDF714FE8D
:1028B000FEF7EAF8154B18602846FDF7A3FD0CA3B8
:1028C000D3E90023FDF708FEFEF7DEF8104B186091
:1028D0002046FDF797FD00220B4BFDF7FDFDFEF7AF
:1028E000D3F80C4B186007B030BD00BFAFF30080C9
:1028F0008195438B6C67703F24020020F801002013
:10290000FA010020FC0100200000103F0803002015
:102910008C0200205803002010B5142490B02246E9
:10292000002108A800F03EFD2246002101A800F089
:1029300039FD022401224FF48033CDE90623CDE98D
:102940000D434FF4C01306A80A920F93FEF7FAFF47
:102950000F238022CDE901340023214601A8CDE9CF
:1029600003230593FFF7C6F910B010BD00238D4A6D
:1029700080B513608C4A9AB013608C4A00241360AF
:102980008B4A102613608B4A8B4D13608B4A4FF491
:10299000805713608A4ADFF894921360894ADFF8FF
:1029A00090821360884A1360884A1360884A1360D3
:1029B000884A1360884A1360884A1360884A136003
:1029C000884A1360884A1360884A1360884A1360F3
:1029D000884A1360884A1360884A1360884A1360E3
:1029E000884A1360FEF7F2F9FFF796FF864B874897
:1029F0009A6942F020029A619A6902F020020292DA
:102A0000029A9A6942F004029A619A6902F00402F9
:102A10000392039A9A6942F008029A619B697C4A80
:102A200003F008030493049B7A4BC0E90244C0E915
:102A300000234FF48043C0E90644C0E90434046233
:102A4000FEF706FD3246214607A800F0ABFC214602
:102A50001C220BA8CDE9054400F0A4FC202221464D
:102A600012A800F09FFC6C4B4FF47A71C5E9003658
:102A70004FF480732846C5E90313AC60C5E90544EB
:102A8000FFF772FB07A928460797FFF758FC28466F
:102A9000FFF796FB05A92846CDE90544FFF742FD5F
:102AA0004FF4FA7360202246CDE90B030BA92846A8
:102AB000CDE90D44CDE90F441194FFF7D9FB042271
:102AC0000BA92846FFF7D4FB4FF4005312A9284660
:102AD0001793CDE91244CDE9144416941994FFF7E5
:102AE00053FD284600F054FB4FF4E133DFF844C1B6
:102AF0004A48C0E900C30C23C0E90244C0E90534D8
:102B00000461C461FFF7CAFD3246214612A800F0F5
:102B100049FC4FF0804E4FF44863414ECDE90B44E1
:102B2000C6E900E364233046C6E90334B460B46107
:102B3000FFF71AFB12A930461297FFF700FC0BA90A
:102B40003046CDE90B44FFF7EDFCFFF737FE30468A
:102B5000FFF700FA21462846FFF7E2FC0421284649
:102B6000FFF7DEFC2F4CFFF773FED8F80000FDF7EF
:102B70005BFCD9F80050064628460F46FDF754FC8A
:102B80003246CDE900013B462749204601F062F874
:102B90004FF0FF33192221462048FFF7ADFDFFF724
:102BA00003FEE0E78402002020020020BC03002096
:102BB00054030020B00300200C0300207802002002
:102BC000CC03002098020020600300209402002023
:102BD000900200205C0300208002002000030020FF
:102BE000B8030020140200207C020020B40300205F
:102BF000C80300201802002088020020A002002044
:102C0000AC0300201C02002000100240240200201F
:102C100000540040801A0600002C0140A40200204D
:102C200064030020E402002058540008040300203C
:102C30008C02002000380140C94A2DE9F047136892
:102C4000C84EC94933600B68C84D1360C84BC94CA6
:102C50001B680B60C84B1868286020681860D1F8A2
:102C600000A01068D6F80080D3F80090FDF7DCFBD8
:102C70009FA3D3E90023FDF72FFC064650460F46DD
:102C8000FDF7D2FB02460B4630463946FDF76EFA99
:102C9000064640460F46FDF7C7FB97A3D3E900233E
:102CA000FDF71AFC02460B4630463946FDF75EFA40
:102CB000064648460F46FDF7B7FB91A3D3E900232C
:102CC000FDF70AFC02460B4630463946FDF74EFA40
:102CD0002D68064628460F46FDF7A6FB8AA3D3E9D2
:102CE0000023FDF7F9FB02460B4630463946FDF757
:102CF0003BFAFDF7C9FEA14A20601368A04EA14926
:102D000033600B68A04D13602368A04C0B60A04B90
:102D10001868286020681860D1F800A01068D6F8FC
:102D20000080D3F80090FDF77FFB79A3D3E900235F
:102D3000FDF7D2FB064650460F46FDF775FB0246EF
:102D40000B4630463946FDF711FA064640460F4617
:102D5000FDF76AFB70A3D3E90023FDF7BDFB024634
:102D60000B4630463946FDF701FA064648460F46FF
:102D7000FDF75AFB6AA3D3E90023FDF7ADFB02463A
:102D80000B4630463946FDF7F1F92D6806462846D0
:102D90000F46FDF749FB64A3D3E90023FDF79CFB35
:102DA00002460B4630463946FDF7DEF9FDF76CFE6C
:102DB000784A20601368784E784933600B68784D04
:102DC00013602368774C0B60774B18682860206885
:102DD0001860D1F800A01068D6F80080D3F80090F1
:102DE000FDF722FB52A3D3E90023FDF775FB06464E
:102DF00050460F46FDF718FB02460B463046394653
:102E0000FDF7B4F9064640460F46FDF70DFB4AA311
:102E1000D3E90023FDF760FB02460B4630463946F6
:102E2000FDF7A4F9064648460F46FDF7FDFA44A310
:102E3000D3E90023FDF750FB02460B4630463946E6
:102E4000FDF794F92D68064628460F46FDF7ECFA83
:102E50003DA3D3E90023FDF73FFB02460B46304676
:102E60003946FDF781F9FDF70FFE504A20601368DF
:102E70004F4E504933600B684F4D136023684F4CE1
:102E80000B604F4B1868286020681860D1F800A0CC
:102E90001068D6F80080D3F80090FDF7C5FA2CA38F
:102EA000D3E90023FDF718FB064650460F46FDF711
:102EB000BBFA02460B4630463946FDF757F906463F
:102EC00040460F46FDF7B0FA23A3D3E90023FDF7F0
:102ED00003FB02460B4630463946FDF747F90646E6
:102EE00048460F46FDF7A0FA6CE000BFAFF3008044
:102EF00083162D35B6000040B6AC15E30BFFEF3F4F
:102F0000DB9D28F2F45AF73F4FE37E624B1DE13F11
:102F1000FDFF13A9613E0040832DB25EAF7EF03FFE
:102F2000C971A6607036F83FC26A1B4FD9EAE23F0A
:102F30001F0964A593FEFF3FA13F221C7A00F03FCA
:102F40009B00B34078F9F93F7C27711D559FE63F00
:102F5000CFC9199E3C83FF3F68A49F223B0AEF3FE5
:102F600020020020BC030020840200207802002000
:102F70008C02002054030020B0030020980200209F
:102F800060030020CC0300205C030020940200209A
:102F90009002002000030020B803002080020020DF
:102FA000B4030020140200207C020020180200203C
:102FB00088020020C80300201C020020A00200207C
:102FC000AC03002020A3D3E90023FDF785FA0246D5
:102FD0000B4630463946FDF7C9F82D6806462846A7
:102FE0000F46FDF721FA1AA3D3E90023FDF774FA7F
:102FF00002460B4630463946FDF7B6F8FDF744FD6C
:1030000020602068FDF710FA13A3D3E90023FDF731
:1030100063FAFDF739FD124B124C1860124B13493D
:103020002360134B20681D68FDF784FDFDF78AFEC1
:10303000686321680D48FDF77BFDFDF783FEA863FB
:10304000BDE8F087AFF300806108FF5511B4FC3F85
:10305000B8B7AA666E5CEC3FAF8F55AA16A8873E3C
:1030600004030020C0030020000048430000FA438E
:103070000C0300200E4B82B09A6942F001029A6163
:103080009A6902F001020092009ADA6942F08052D5
:10309000DA61DB69074A03F080530193019B5368AF
:1030A00023F0E06343F00073536002B0704700BF49
:1030B000001002400000014010B5044686B0102206
:1030C000002102A800F06EF92268154B9A4224D123
:1030D000144C4FF44072A36902A943F00803A361A2
:1030E000A369114803F008030093009B1223CDE964
:1030F000022303230593FDF7F7FE0C4A536843F0C0
:10310000E06343F002035360E36943F40013E361B7
:10311000E36903F400130193019B06B010BD00BFE7
:103120000054004000100240000C0140000001402B
:1031300007B50368144A93420CD1144B9A6942F4C0
:1031400000629A619B6903F400630093009B03B0E3
:103150005DF804FBB3F1804FF9D103F50433DA696C
:103160001C2042F00102DA610022DB69114603F003
:1031700001030193019BFDF75FFE1C2003B05DF886
:1031800004EBFDF78DBE00BF002C01400010024093
:1031900010B5044686B01022002102A800F002F902
:1031A00022680D4B9A4214D103F564439A6902A92F
:1031B00042F004029A619B694FF4407203F00403E9
:1031C0000193019B02230548CDE902230593FDF7F6
:1031D0008BFE06B010BD00BF002C0140000801406E
:1031E00010B5044686B01022002102A800F0DAF8DB
:1031F0002268194B9A422DD103F558439A6902A9C6
:1032000042F480429A619A69144802F48042009222
:10321000009A9A6942F008029A619B69402203F081
:1032200008030193019B0223CDE9022303230593A5
:10323000FDF75AFE002380210848CDE9021302A9B8
:103240000493FDF751FE064A536843F0E06343F0F0
:103250000403536006B010BD00380140000C01406B
:10326000000001407047FEE7FEE7FEE7FEE770471B
:1032700070477047FDF7BCBD0148FEF79ABE00BF1E
:103280006403002008B50A4B0246196809B90949C8
:1032900019606946186802448A4206D900F058F855
:1032A0000C2303604FF0FF3008BD1A6008BD00BF5B
:1032B00000020020D40300200F4B1A6842F00102E4
:1032C0001A6059680D4A0A405A601A6822F08472DE
:1032D00022F480321A601A6822F480221A605A6836
:1032E00022F4FE025A604FF41F029A604FF000620F
:1032F000034B9A60704700BF001002400000FFF8C7
:1033000000ED00E0002103E00B4B5B58435004311B
:103310000A480B4B42189A42F6D30A4A02E00023AD
:1033200042F8043B084B9A42F9D3FFF7C5FF00F07F
:1033300015F8FFF71BFB7047E0560008000000205F
:10334000DC010020DC010020D4030020FEE70000A7
:10335000014B1868704700BF0C00002070B50025B5
:103360000C4E0D4CA41BA410A54209D102F05EF82E
:1033700000250A4E0A4CA41BA410A54205D170BD1D
:1033800056F8253098470135EEE756F8253098472E
:103390000135F2E7D8560008D8560008D85600087C
:1033A000DC56000803460244934200D1704703F8FC
:1033B000011BF9E7002B2DE9F0471E46BBBF03F1C7
:1033C00000431E4600232D2388B0149FDDE9121A06
:1033D00027F02007462F1446109D0B7004D0452F70
:1033E00000D10135022300E0032307AA049206AAB4
:1033F000CDE902A2CDE900352246334600F0D8FCE3
:10340000472F804602D1119BDB0726D5462F08EBBC
:10341000050911D198F80030302B0AD10022002381
:1034200020463146FDF7C0FA18B9C5F10105CAF8C2
:103430000050DAF80030994400220023204631463B
:10344000FDF7B2FA38B93022079B4B4505D2591C1B
:1034500007911A70F8E7CDF81C904046079B159A23
:10346000A3EB0803136008B0BDE8F087F7B50029A7
:10347000B4BF2D232B230446B8BF4942092904F8C1
:10348000022B437021DD0DF107031F460A2691FB35
:10349000F6F506FB1511092D01F1300103F8011CA9
:1034A00003F1FF32294609DC3031023B02F8011CEE
:1034B000BB42224604D3101A03B0F0BD1346E6E720
:1034C00013F8012B04F8012BF2E730231944837021
:1034D000021DC170EFE700002DE9F04F91B00C46DE
:1034E0001A9F93461E46054601F016FA03681846D1
:1034F0000993FCF72DFE00230E933B680A900733D7
:1035000023F0070303F1080294F81880D4F800A010
:103510003A60D3E90023C4E91223D4E9127929F0EF
:1035200000430B934FF0FF32A64B38460B99FDF743
:103530006DFA68BB4FF0FF32A24B38460B99FDF78E
:1035400047FA28BB0022002338464946FDF736FAE1
:1035500010B12D2384F843309B4F9C4BB8F1470F9B
:1035600098BF1F4603234FF0000923612AF004038C
:10357000236000965B460FAA2146284600F0E2F938
:10358000013040F090804FF0FF3011B0BDE8F08F77
:103590003A464B4638464946FDF738FA10B18C4F4B
:1035A0008C4BDBE763684AF48062591C0DA80EA9B6
:1035B00040D1062363604FF0000C0DF13303CDE9D9
:1035C000012363682260CDE9030800933A464B4625
:1035D000CDE9051C2846FFF7EDFE08F0DF03472B79
:1035E000074609D10D9BD81C02DB6268934247DD78
:1035F000A8F102085FFA88F8B8F1650F0D9924D890
:103600000139424604F150000D91FFF72FFF0E9A49
:1036100081461318012A236102DC2268D10701D5F3
:10362000013323619DF83330002BA2D02D2384F881
:1036300043309EE7B8F1670F00F06E81B8F1470F95
:10364000B9D1002BB7D10123B4E7B8F1660F19D176
:10365000002963680CDD216113B92268D20702D505
:1036600001330B4423610D9B4FF00009A365D9E79B
:1036700013B92268D00701D50233F3E70123F1E73C
:103680004FF06708DDE90D32934205DB22682361C4
:10369000D107E8D50133E5E7002BCCBF0123C3F107
:1036A00002031344DEE723685A0507D423693A4628
:1036B00059462846B047013029D164E7B8F1650F73
:1036C00040F2D780D4E9120100220023FDF76CF903
:1036D00088B30123404A59462846B04701303FF499
:1036E00052AFDDE90D239A4202DB2368D8070ED5DD
:1036F000DDE9092359462846B04701303FF443AF7E
:10370000002704F11A080E9B013BBB4209DC236829
:103710009F0700F1FD80E0680F9B9842B8BF1846F4
:1037200033E70123424659462846B04701303FF46B
:103730002AAF0137E7E70D9B002B2BDC0123264A3C
:1037400059462846B04701303FF41DAF0D9B23B9C1
:103750000E9B13B92368D907D9D5DDE9092359464A
:103760002846B04701303FF40EAF4FF0000804F197
:103770001A090D9B5B42434501DC0E9B97E7012331
:103780004A4659462846B04701303FF4FCAE08F19E
:103790000108EEE70E9AA36D9A42A8BF1A46002AC6
:1037A000904607DD134659463A462846B047013051
:1037B0003FF4E9AE04F11A034FF0000A28EAE87872
:1037C0000B9315E0FFFFEF7F815400087D54000844
:1037D00089540008855400088D54000801230B9A71
:1037E00059462846B04701303FF4CDAE0AF1010AF0
:1037F000D4F85890A9EB08035345EFDCDDE90D231D
:103800009A424F4414DB2368DA0711D40E9B0D99BA
:10381000A3EB0902A3EB01099145A8BF9146B9F1B9
:10382000000F0DDC002729EAE97904F11A0818E0F5
:10383000DDE9092359462846B0470130E6D1A2E622
:103840004B463A4659462846B0470130EAD19AE6F7
:103850000123424659462846B04701303FF493AE13
:103860000137DDE90D239B1AA3EB0903BB42EFDC13
:103870004DE70E9A012A01DCDB0738D501233A46D1
:1038800059462846B04701303FF47DAEDDE90923B3
:1038900059462846B047013007F101073FF473AE9F
:1038A000D4E912010E9B002203F1FF380023FDF73B
:1038B0007BF8C0B943463A4659462846B0470130DE
:1038C0000DD160E60123424659462846B0470130F3
:1038D0003FF459AE01370E9B013BBB42F2DC4B4635
:1038E00004F15002E4E6002704F11A08F3E701238B
:1038F000E1E70123424659462846B04701303FF4EC
:1039000042AE0137E3680F9A9B1ABB42F1DC02E733
:10391000002704F11908F5E7002B3FF494AE4FF0AF
:10392000000CCDE9051C0DF133012260CDE903083F
:10393000CDE9012100933A464B462846FFF73AFD70
:1039400007464FE62DE9F04791461F468A680B6906
:1039500006469342B8BF1346C9F8003091F8432099
:103960000C46DDF8208012B10133C9F8003023681D
:10397000990642BFD9F800300233C9F800302568F3
:1039800015F0060507D104F1190AE368D9F80020FB
:103990009B1AAB4229DC94F843302268003318BFED
:1039A000012392062ED404F1430239463046C04723
:1039B000013021D02368E56803F00603042B18BF0B
:1039C0000025D9F800204FF0000908BFAD1AA36800
:1039D000226908BF25EAE5759342C4BF9B1AED181A
:1039E0001A344D451AD1002008E0012352463946C9
:1039F0003046C047013003D14FF0FF30BDE8F087BB
:103A00000135C2E73020E11881F843005A1C94F8D0
:103A100045102244023382F84310C4E701232246B2
:103A200039463046C0470130E6D009F10109D8E7F0
:103A30002DE9F04301F1430C0C46097E85B06E2957
:103A40001746064698460C9A00F0B38022D86329A0
:103A500036D00AD8002900F0B980582900F08380B8
:103A600004F1420584F8421032E0642901D069294A
:103A7000F6D120681368050603F104012AD51B68F6
:103A80001160002B03DA2D225B4284F843206F483B
:103A90000A2239E0732900F09D8008D86F2920D0D0
:103AA0007029DDD1236843F02003236003E07529EA
:103AB00017D07829D4D17823654884F8453055E06B
:103AC000136804F14205191D1B68116084F8423027
:103AD00001238CE01B6810F0400F116018BF1BB26F
:103AE000CFE713682568181D1060280601D51B68EC
:103AF00002E06806FBD51B886F2914BF0A22082242
:103B00005248002184F843106568002DA560C0F27A
:103B10009580216821F004012160002B3DD1002D0A
:103B200040F08E806546082A0BD12368DB0708D554
:103B3000236962689A42DEBF302305F8013C05F133
:103B4000FF35ACEB05032361CDF800803B4603AAAB
:103B500021463046FFF7F6FE01304DD14FF0FF30E1
:103B600005B0BDE8F083394884F845101368216832
:103B70001D1D1B6815600A060BD5CA0744BF41F01E
:103B8000200121601BB9226822F02002226010224D
:103B9000B7E74D0648BF9BB2EFE76546B3FBF2F1CE
:103BA00002FB1133C35C05F8013D0B460029F5D13A
:103BB000B9E713682568181D6169106028061B683D
:103BC00001D5196002E06A06FBD51980002365461D
:103BD0002361B9E71368191D11601D68626800212F
:103BE000284600F0AFFE08B1401B606063682361A7
:103BF000002384F84330A7E723692A463946304634
:103C0000C0470130AAD023689B0713D4E068039B08
:103C10009842B8BF1846A3E701234A4639463046C2
:103C2000C04701309AD00135E368039A9B1AAB4232
:103C3000F2DCEBE7002504F11909F5E7002BACD124
:103C4000037804F1420584F842306CE78F54000891
:103C5000A05400080EB46FF0004100B59CB01DAB3D
:103C600002900690079104910848094953F8042BE3
:103C70000591006802A9019301F068FA0022029BF5
:103C80001A701CB05DF804EB03B070470C00002004
:103C90000802FFFF2DE9F74F03690C698046A34234
:103CA000C0F28480013C01F1140700F1140657F8BA
:103CB000245056F824000135B0FBF5F54FEA840C8A
:103CC00006EB0C0307EB0C0901939DB34FF0000AC0
:103CD0003846B646D34650F8042B93B205FB03A3EF
:103CE000120C4FEA134A05FB02A29BB2ABEB030393
:103CF000DEF800B04FEA124A1FFA8BFB5B441FFA52
:103D000082FBDEF800208145CBEB124202EB23421E
:103D10009BB243EA02434FEA224B4EF8043BDAD20D
:103D200056F80C3033B9019B043B9E421A4631D3FE
:103D3000C8F81040404601F033F8002826DB304632
:103D40004FF0000C013557F8041BD0F800E08BB29F
:103D5000ACEB03031FFA8EF213440A0CC2EB1E42B3
:103D600002EB23429BB243EA0243B9454FEA224C9D
:103D700040F8043BE7D256F8242006EB84032AB926
:103D8000043B9E421A460BD3C8F81040284603B0A5
:103D9000BDE8F08F1268043B002AC9D1013CC4E79A
:103DA0001268043B002AEFD1013CEAE70020EEE76D
:103DB0002DE9F04F16461F46456A95B00446DDF8DA
:103DC0008480CDE902673DB9102000F0B3FD606248
:103DD000C0E901550560C560636A196851B15A6848
:103DE000012393404A608B60204600F0F8FD0022DA
:103DF000636A1A603B1EAFBF0023012223F0004319
:103E00000393ACBFC8F80030C8F80020AE4BDDF813
:103E10000C8033EA08031BD142F20F73209A13601F
:103E2000029B23B9C8F31300002800F04585229BAC
:103E300053B9A64B21E0A64B06930833229A136090
:103E4000069815B0BDE8F08FA04B06930333F5E755
:103E5000DDE902670022002330463946FCF7A4FD65
:103E6000824660B10123209A1360229B002B00F050
:103E70002085984B229A1360013B0693E0E712AB32
:103E8000019313AB009332463B46204601F000F805
:103E9000C8F30A558346002D7DD0B046C7F31303FF
:103EA00043F07F5949F44019A5F2FF35CDF840A001
:103EB0000022894B40464946FCF756F97CA3D3E9DA
:103EC0000023FCF709FB7CA3D3E90023FCF74EF9A0
:103ED000064628460F46FCF795FA79A3D3E9002356
:103EE000FCF7FAFA02460B4630463946FCF73EF933
:103EF00006460F46FCF7A0FD00228246002330460E
:103F00003946FCF75BFD48B15046FCF77BFA324678
:103F10003B46FCF749FD08B90AF1FF3ABAF1160F22
:103F20005AD8DDE902236D4901EBCA01D1E900014C
:103F3000FCF762FD002851D000230AF1FF3A0D93EF
:103F4000129B5D1B6B1E079343BF0023C5F1010944
:103F500007934FF00009BAF1000F41DB079BCDF842
:103F600030A053440793002308931E9B092B00F2B3
:103F70008F80052BC4BF043B1E931E9BC8BF00252A
:103F8000A3F10203D8BF0125032B00F28D80DFE8E7
:103F900003F07B7D2F6FDDE912531D4405F23240A3
:103FA000202813DDC0F14000029B08FA00F805F25A
:103FB000124023FA00F048EA0000FCF713FA01234C
:103FC0008046A1F1F879013D109371E7029BC0F1A1
:103FD000200003FA00F0F0E70123B0E70D90AFE70F
:103FE000CAF1000308930023A9EB0A090C93BCE76C
:103FF000012309931F9B002B74DD98460493002234
:10400000666A7260042202F11400984271686ED9E7
:10401000204600F0B0FC636A30601B68B8F10E0FF8
:10402000069300F2ED80002D00F0EA80DDE9022326
:10403000BAF1000FCDE90E2377DD284A0AF00F030D
:104040004FEA2A1602EBC303F006D3E90023CDE9B9
:104050000A2368D5DDE90E01214B0325D3E90823A6
:10406000FCF764FBCDE9020106F00F061C4F4FE0A0
:10407000012309931F9B534403F101080493434612
:10408000012BB8BF0123BAE70023B2E70023F0E712
:104090000125002309951E934FF0FF33002204935E
:1040A000984612231F92AAE701230993F4E700BF61
:1040B00061436F63A787D23FB3C8608B288AC63F2E
:1040C000FB799F501344D33F0000F07FBA5400089F
:1040D000B15400088E5400080000F83FE85400086E
:1040E000C05400080123049398461A46DAE70131C8
:1040F0007160520087E7F10708D5DDE90A01D7E9C9
:104100000023FCF7E9F9CDE90A01013576100837FB
:10411000002EF0D1DDE90A23DDE90201FCF706FB00
:10412000CDE902011BE00225A0E700F0A480DDE953
:104130000E01CAF10006A04B06F00F0203EBC2030A
:10414000D3E90023FCF7C8F902250023CDE90201D9
:104150009A4F3611002E40F08380002BE0D10D9B4A
:10416000002B00F08A80DDE90223CDE90A23DDE996
:104170000A010022924BFCF721FC00287DD0B8F107
:10418000000F7AD0049B002B36DDDDE90A01002206
:104190008C4BFCF7A1F9CDE90201049E0AF1FF372F
:1041A00001352846FCF72EF9DDE90223FCF794F9E6
:1041B0000022854BFBF7DAFFA1F15075CDE90A012A
:1041C0000B95002E5CD1DDE9020100227F4BFBF74D
:1041D000CBFF0A9A2B46CDE90201FCF70DFC002823
:1041E00040F08182DDE902010A9A05F10043FCF703
:1041F000E5FB002840F07582DDE90E23CDE90223BE
:10420000139B002BC0F24B81BAF10E0F00F34781D4
:10421000694B03EBCA03D3E90023CDE904231F9BB9
:10422000002B80F2D780B8F1000F00F3D38040F06C
:104230005782DDE904010022644BFCF74DF9DDE90A
:104240000223FCF7CFFB46464746002840F02D826C
:10425000069B069A5D1C31230AF1010A137028E2BD
:10426000F20705D5D7E90023FCF736F9012301351C
:10427000761008376EE7022571E75746464690E705
:104280004D4B03EBC60353E90201099B002B48D0B9
:1042900002460B4600204E49FCF748FADDE90A23A6
:1042A000FBF762FFCDE90A01069DDDE90201FCF79B
:1042B000C3FB1190FCF7A6F802460B46DDE90201AC
:1042C000FBF752FF119BCDE90201303305F8013BAA
:1042D000DDE90A23FCF772FB002863D1DDE9022344
:1042E00000203749FBF740FFDDE90A23FCF766FBB6
:1042F000002840F0B580069BEB1A9E427FF77CAF0A
:10430000DDE90A0100222F4BFCF7E6F80022CDE997
:104310000A01DDE902012B4BFCF7DEF8CDE90201D1
:10432000C3E7DDE90A23FCF7D7F8069BCDE90A01CC
:104330009D191E46DDE90201FCF77EFB1190FCF79A
:1043400061F802460B46DDE90201FBF70DFF119B08
:10435000CDE90201303306F8013BAE424FF00002D6
:1043600024D1DDE90A011A4BFBF700FF02460B4698
:10437000DDE90201FCF740FB002871D1DDE90A23E9
:1043800000201349FBF7F0FE02460B46DDE902016F
:10439000FCF714FB00283FF42FAF15F8013C6A1E10
:1043A000302B01D0BA464AE01546F6E7054BFCF73C
:1043B00093F8CDE90201BDE7E8540008C0540008B5
:1043C0000000F03F0000244000001C4000001440AA
:1043D0000000E03F069DDDE90267DDE90423304689
:1043E0003946FCF7A3F9FCF727FB8146FCF70AF8EE
:1043F000DDE90423FCF770F802460B4630463946E7
:10440000FBF7B2FE09F1300605F8016B069E024685
:10441000AE1BB0450B4635D1FBF7A8FEDDE9042302
:1044200006460F46FCF7E8FAC8B9DDE90423304632
:104430003946FCF7B9FA10B119F0010F0FD15946FE
:10444000204600F0CCFA0023209A2B700AF10103D9
:104450001360229B002B3FF4F3AC1D60F0E4574641
:1044600015F8012C6B1E392A06D1069A9A4207D1FB
:1044700030231370134601371A7801321A7091E70E
:104480001D46EDE70022994BFCF726F80022002399
:1044900006460F46FCF788FA00289ED0CFE7099A17
:1044A000002A00F088801E9A012A6DDC109A002AEA
:1044B00066D003F233434D46089E079A01211A4401
:1044C00020469944079200F02AFB0746002D0BDD99
:1044D000079B002B08DDAB42A8BF2B46079AA9EB30
:1044E0000309ED1AD31A0793089BEBB1099B002B24
:1044F00065D08EB139463246204600F0AFFB5A46B1
:1045000001460746204600F013FB59460A90204614
:1045100000F065FA0A9B9B46089B9A1B04D05946FB
:10452000204600F09BFB83460121204600F0F7FA6D
:104530000C9B0646002B00F0C6811A460146204619
:1045400000F08CFB1E9B0646012B3EDC029B002BE1
:1045500037D1039BC3F31303002B34D1039B23F008
:1045600000431B0D1B052BB1079B09F1010901330A
:104570000793012308930C9B002B28D101202EE0E8
:10458000129BC3F1360396E7089B08F1FF36B3424E
:10459000B7BF089B9E1BF21A0C9BBFBF08969B18C7
:1045A0000C930026B8F1000FB9BFA9EB0805002352
:1045B0004D46434681E7089E4D46099F86E7089A87
:1045C000ADE70023D6E7029BD4E7002308933369C5
:1045D00006EB8303186900F054FAC0F12000079B32
:1045E000184410F01F0047D0C0F12003042B3BDD1E
:1045F000079BC0F11C008144054403440793B9F1B3
:10460000000F05DD59464A46204600F075FB8346FB
:10461000079B002B05DD31461A46204600F06CFB57
:1046200006460D9B53B33146584600F0B9FB0028AF
:1046300024DA002359460A22204600F0E7F9099BB4
:104640000AF1FF3A8346002B00F0448100233946EB
:104650000A22204600F0DAF9049B0746002B4DDCC5
:104660001E9B022B4ADD11E0C9D0079A1C331A4465
:1046700099441D441346C1E70346F6E7B8F1000F1D
:1046800036DC1E9B022B33DDCDF81080049B63B912
:1046900031460522204600F0B9F901460646584643
:1046A00000F07EFB00283FF7D3AD1F9B069D6FEA0D
:1046B000030A4FF000093146204600F090F9002F20
:1046C0003FF4BDAEB9F1000F05D0B94503D049465E
:1046D000204600F084F93946204600F080F9AEE625
:1046E00000263746E1E7BA463746B1E500002440E8
:1046F000099BCDF81080002B00F0F380002D05DD24
:1047000039462A46204600F0F7FA0746089B002B58
:104710004CD07968204600F02EF905463A6907F139
:104720000C01023292000C3000F01AF901222946E5
:10473000204600F0E1FAB9460746069B0793029B24
:1047400003F00103089331465846FFF7A3FA4946A0
:10475000054600F13008584600F022FB3A46029028
:104760003146204600F036FBC368024603BB0146D3
:104770000990584600F014FB0346099A114620465A
:10478000099300F02CF9099BA3B91E9A92B9089AD3
:1047900082B9B8F1390F29D0029B002B01DD05F158
:1047A0003108079B5D1C83F8008084E73846C2E728
:1047B0000123E3E7029A002A04DB23D11E9A0ABBF5
:1047C000089AFAB9002BECDD59460122204600F088
:1047D00093FA3146834600F0E3FA002803DCE0D187
:1047E00018F0010FDDD0B8F1390FD8D1079B079A27
:1047F0005D1C3923137015F8013C6A1E392B4DD00E
:10480000013352E0079A002B02F1010506DDB8F1F1
:10481000390FEBD008F10108079BC4E7069B049A07
:10482000EB1A934205F8018C21D0594600230A2245
:10483000204600F0EBF8B94583464FF000034FF0F7
:104840000A024946204605D100F0E0F881460746B5
:10485000079578E700F0DAF83946814600230A2206
:10486000204600F0D3F80746F2E74FF0000959461A
:104870000122204600F040FA3146834600F090FACB
:104880000028B8DC02D118F0010FB4D115F8013CB2
:104890006A1E302B7FF40FAF1546F7E7069B934255
:1048A00005D13123069A0AF1010A137003E7154670
:1048B000A1E7174BFFF7E1BA229B002B7FF4BBAABD
:1048C000144BFFF7DABA1E9B012B7FF73FAE0C9B10
:1048D000089353E6049B002B03DC1E9B022B3FF73F
:1048E000D5AE069D31465846FFF7D4F9069B00F138
:1048F000300805F8018B049AEB1A9A42B5DD594647
:1049000000230A22204600F081F88346EAE700BF30
:104910008D540008B1540008044B1B68186A044BFE
:10492000002808BF1846F030704700BF0C00002078
:1049300070000020024B0146186800F053BB00BF16
:104940000C00002010B5C9B202449042034601D1C8
:10495000002303E01C7801308C42F6D1184610BDCC
:1049600010B5431E0A44914200D110BD11F8014B0D
:1049700003F8014FF7E770B5456A04460E463DB9A6
:104980001020FFF7D7FF6062C0E901550560C560E0
:10499000656AEB6883B1636ADB6853F82600B8B9CF
:1049A000012101FA06F56A1D9200204600F0BFFAC7
:1049B00060B1C0E901650EE021220421204600F02B
:1049C000B6FA636AE860DB68002BE4D1002070BDB2
:1049D000026843F826200023C0E90333F7E770B5E7
:1049E000446A06460D463CB91020FFF7A3FF7062EB
:1049F000C0E901440460C4603DB1736A6A68DB6861
:104A000053F82210296043F8225070BD2DE9F0417F
:104A10001F4606460C4600230D6901F1140CDCF814
:104A20000000013381B202FB0171000C0F0C02FB8C
:104A3000007089B201EB00419D424FEA10474CF8EB
:104A4000041BECDCD7B1A368AB4212DC61683046D2
:104A50000131FFF790FF8046226904F10C01023218
:104A600092000C30FFF77CFF21463046FFF7B7FF7E
:104A7000444604EB850301355F6125612046BDE8AE
:104A8000F081020C12040346B2B90304102013F0A3
:104A90007F4F04BF1B02083013F0704F04BF1B018F
:104AA000043013F0404F04BF9B000230002B06DBA4
:104AB0005B0003D5013070470020E8E720207047F5
:104AC0000368014613F007020BD0DA0723D49807D6
:104AD00049BF5B089B0801200B605CBF0B60022094
:104AE000704798B2A8B910201B0C13F0FF0F04BF39
:104AF0001B0A08301A0704BF1B0904309A0704BFB9
:104B00009B080230DA0702D45B0806D001300B6044
:104B100070471046E9E7002070472020704710B525
:104B20000C460121FFF727FF01224461026110BDFD
:104B30002DE9F74F14460A69236988469A42BEBF99
:104B40000B46A0461C46D8F81070D4F81090D8F840
:104B50000830D8F8041007EB0906B342B8BF01319A
:104B6000FFF709FF00F114052B46002205EB860E26
:104B7000734516D304F1140208F1140102EB890302
:104B800001EB87070093009B019293420CD8002E03
:104B900003DD5EF8043D002B5DD0066103B0BDE887
:104BA000F08F43F8042BE3E7B2F800B0BBF1000F3D
:104BB00023D08946AC464FF0000859F8044BDCF886
:104BC00000A0A3B21FFA8AFA0BFB03A34FEA144A10
:104BD000DCF8004043444FEA14480BFB0A84E246E9
:104BE00004EB13449BB243EA04434F454FEA144895
:104BF0004AF8043B2BD8CCF80480019B0432B3F86C
:104C000002A0BAF1000F20D08946A8464FF0000B51
:104C10002B68B9F800C0B8F802409BB20AFB0C44FC
:104C2000C4465C4443EA04434CF8043B59F8043B53
:104C3000B8F804B01B0C0AFB03B34F4503EB144355
:104C40004FEA134B05D8C8F8043004359BE7D44627
:104C5000B3E7E046DDE7013E99E700002DE9F843C0
:104C6000154612F0030206460F4607D0214C013AC2
:104C7000002354F82220FFF7C9FE0746AD1035D0B7
:104C8000746A3CB91020FFF755FE7062C0E9014418
:104C90000460C460D6F82480D8F808404CB940F2CB
:104CA00071213046FFF73BFF00230446C8F8080097
:104CB00003604FF00008EB070AD53946224630461C
:104CC000FFF736FF814639463046FFF788FE4F46EC
:104CD0006D100BD0206838B9224621463046FFF7C8
:104CE00027FF2060C0F800800446E4E73846BDE8AE
:104CF000F88300BFB05500082DE9F0470C46074681
:104D0000164623694FEA621A0AEB03094968A36849
:104D100009F10105AB4232DB3846FFF72CFE0023D8
:104D200080461A4600F1140153452BDB20692AEA1C
:104D3000EA7A04F1140316F01F0201EB8A0103EB77
:104D4000800C25D00020C2F1200E8A461E689640B5
:104D500030434AF8040B53F8040B9C4520FA0EF03C
:104D600014D8486008B109F10205013D3846C8F879
:104D700010502146FFF733FE4046BDE8F087013171
:104D80005B00C7E741F823200133CDE75146DCE75C
:104D9000043953F8042B9C4541F8042FF9D8E4E773
:104DA00003690A6930B59B1A0CD192001430143192
:104DB0008418114454F8045D51F8042D954203D031
:104DC00005D30123184630BDA042F3D3FAE74FF0D4
:104DD000FF33F7E72DE9F0470D4607461146284611
:104DE0001446FFF7DDFF061E08D131463846FFF7AF
:104DF000C2FD0123C0E90436BDE8F087A4BF234605
:104E00002C4638466168A6BF1D4600260126FFF7DE
:104E1000B2FD4FF0000EC6602B69266904F1140242
:104E200005F1140902EB860709EB830800F1140170
:104E300052F804AB59F8045B1FFA8AF37344ACB21E
:104E40001B1B2C0CC4EB1A4404EB23449BB24FEA0B
:104E5000244EC84543EA0444944641F8044BE7D83D
:104E6000BC4504D351F8043D83B10661C4E75CF846
:104E7000044BA2B27244131403EB144392B242EAFD
:104E800003424FEA234E41F8042BE9E7013EE9E7EC
:104E90002DE9F3411C46DDE9086501219046FFF745
:104EA0006AFDC4F31302C4F30A54074634BB0192EB
:104EB000B8F1000227D002A840F8082DFFF700FE45
:104EC0000099F0B1019AC0F1200302FA03F30B43F9
:104ED000C2407B610192019B002B14BF0221012182
:104EE000BB613961C4B1A4F2334404443460C0F1FD
:104EF00035002860384602B0BDE8F08142F48012E7
:104F0000D5E77961E7E701A8FFF7DAFD0121019B09
:104F100039617B612030E5E7A0F2324007EB810385
:104F200030601869FFF7ADFDC0EB4110E1E738B51F
:104F300002FB01F4214600F055F8054618B122465F
:104F40000021FEF72FFA284638BD000038B5054687
:104F5000002943D051F8043C0C1F002BB8BFE418C3
:104F600000F027FA1E4A1368104633B963601460D4
:104F70002846BDE8384000F01DBAA3420BD921688D
:104F80006218934201BF1A685B685218226063601E
:104F90000460EDE713465A680AB1A242FAD91968CB
:104FA0005818A0420BD12068014458188242196059
:104FB000DED110685268014419605A60D8E702D9FE
:104FC0000C232B60D4E7206821188A4201BF1168A6
:104FD00052680918216062605C60C9E738BD00BF93
:104FE0000402002070B5CD1C25F0030508350C2DFA
:104FF00038BF0C25002D064601DBA94203D90C233E
:105000003360002070BD00F0D4F9214A14682146B5
:1050100091B9204C23681BB9304600F08FF920600D
:105020002946304600F08AF9431C24D10C2330462F
:10503000336000F0BFF9E4E70B685B1B18D40B2B5F
:105040000FD90B60CC18CD50304600F0B3F904F105
:105050000B00231D20F00700C31AD3D05A42E250A0
:10506000D0E74B688C4216BF636013600C46EBE7D9
:105070000C464968CCE7C41C24F00304A04205D0C8
:10508000211A304600F05AF90130CFD02560DBE715
:1050900004020020080200202DE9F0478E688246B5
:1050A0009E420C469046994637D88A8912F4906FF2
:1050B00031D00223256809696F1A656905EB45053A
:1050C00095FBF3F509F101033B449D4238BF1D46B2
:1050D000530530D52946FFF785FF064650B90C2306
:1050E0004FF0FF30CAF80030A38943F04003A3819A
:1050F000BDE8F0873A462169FFF732FCA38923F423
:10510000906343F08003A38126613E4426604E46AF
:105110006561ED1BA5604E4500D94E4632464146BD
:10512000206800F02DF9A36800209B1BA360236872
:105130001E442660DCE72A4600F03DF906460028BA
:10514000E2D121695046FFF701FFC8E72DE9F04F92
:105150001D468B899DB01F0680460C4616460FD50E
:105160000B696BB94021FFF73DFF2060206128B932
:105170000C23C8F800304FF0FF30C8E040236361D3
:105180000023099320238DF8293030234FF0010BA1
:105190008DF82A30039537463D4615F8013B0BB193
:1051A000252B3ED1B7EB060A0BD05346324621469B
:1051B0004046FFF771FF013000F0A480099B534483
:1051C00009933B78002B00F09D8000234FF0FF32C5
:1051D000CDE90523049307938DF853301A932F4696
:1051E000052217F8011B5048FFF7ACFB049BD0B910
:1051F000D90644BF20228DF853201A0744BF2B2222
:105200008DF853202A782A2A15D02F4600200A2507
:10521000079A394611F8013B303B092B4DD9B8B1FB
:105220000FE02F46B8E7404A3D46801A0BFA00F0DF
:1052300018430490D3E7039A111D12680391002AC2
:1052400001DB079204E0524243F002030792049309
:105250003B782E2B0CD17B782A2B33D1039B023742
:105260001A1D1B680392002BB8BF4FF0FF33059344
:105270002E4D032239782846FFF764FB38B14023CE
:10528000401B03FA00F0049B013703430493397871
:10529000062227487E1C8DF82810FFF753FB0028B4
:1052A00038D0244B13BB039B073323F00703083389
:1052B0000393099B4B4409936DE705FB02320120E0
:1052C0000F46A6E700230A251946013705933846FD
:1052D00010F8012B303A092A03D9002BC8D00591C8
:1052E000C6E705FB012101230746F0E703AB009366
:1052F0002246114B04A94046FEF7EEF8B0F1FF3FFD
:105300008146D6D1A3895B063FF535AF09981DB01C
:10531000BDE8F08F03AB00932246074B04A940463B
:10532000FEF786FBEAE700BFBC550008C25500083F
:10533000C6550008D93400089950000838B5002334
:10534000054C054608462360FDF79CFF431C02D12F
:10535000236803B12B6038BDD003002082B001B9AF
:1053600001A942B14BB113780B601278101C18BF21
:10537000012002B070471046FBE76FF00100F8E72C
:10538000884210B501EB020307D8421E99420AD0A9
:1053900011F8014B02F8014FF8E78342F5D9811863
:1053A000D21AD34200D110BD13F8014D01F8014DBE
:1053B000F7E770477047F8B5074614460E4621B91F
:1053C000BDE8F8401146FFF70DBE22B9FFF7BEFD5C
:1053D00025462846F8BD00F021F8A0420FD221460C
:1053E0003846FFF7FFFD05460028F2D03146224639
:1053F000FFF7B6FA31463846FFF7A8FDE9E735462C
:10540000E7E749B1FF2A8BBF8A230A7003600120B6
:1054100088BF4FF0FF3070470846704751F8043C92
:10542000181F002BBCBF0B58C0187047F8B500BF41
:10543000F8BC08BC9E467047F8B500BFF8BC08BC75
:045440009E467047CD
:1054480002030405060708090A0B0C0D0E0F1010BD
:10545800252E34662C20252E34660A0D0000000007
:10546800000000000001020304060708090000000C
:105478000001020304494E4600696E66004E414E23
:10548800006E616E003000303132333435363738D3
:10549800394142434445460030313233343536379A
:1054A800383961626364656600496E66696E69745D
:1054B80079004E614E0000000080E03779C3414317
:1054C800176E05B5B5B89346F5F93FE9034F384D62
:1054D800321D30F94877825A3CBF737FDD4F15750E
:1054E800000000000000F03F000000000000244021
:1054F80000000000000059400000000000408F40FC
:10550800000000000088C34000000000006AF84066
:105518000000000080842E4100000000D01263418A
:105528000000000084D797410000000065CDCD4100
:10553800000000205FA00242000000E876483742E1
:10554800000000A2941A6D42000040E59C30A2427F
:105558000000901EC4BCD64200003426F56B0C43F4
:105568000080E03779C3414300A0D885573476439B
:1055780000C84E676DC1AB43003D9160E458E143FC
:10558800408CB5781DAF154450EFE2D6E41A4B4471
:1055980092D54D06CFF08044F64AE1C7022DB544B6
:1055A800B49DD9794378EA44050000001900000049
:1055B8007D000000232D302B2000686C4C006566B0
:1055C80067454647004300504F534958002E000096
:1055D800202020202020202020282828282820209B
:1055E80020202020202020202020202020202020B3
:1055F800881010101010101010101010101010102B
:10560800040404040404040404041010101010100A
:1056180010414141414141010101010101010101E3
:105628000101010101010101010101101010101017
:1056380010424242424242020202020202020202B4
:1056480002020202020202020202021010101020DC
:105658000000000000000000000000000000000042
:105668000000000000000000000000000000000032
:105678000000000000000000000000000000000022
:105688000000000000000000000000000000000012
:105698000000000000000000000000000000000002
:1056A80000000000000000000000000000000000F2
:1056B80000000000000000000000000000000000E2
:1056C80000000000000000000000000000000000D2
:0456D8003501000890
:0456DC0011010008B0
:1056E000010000001000000000A24A041000002089
:1056F00000000000000000000000000000000000AA
:105700000000000000000000000000000000000099
:105710000000000000000000000000000000000089
:105720000000000000000000000000000000000079
:105730000000000000000000000000000000000069
:105740000000000000000000000000000000000059
:105750004300000000000000000000000000000006
:105760000000000000000000000000000000000039
:1057700043000000000000000000000000000000E6
:105780000000000000000000000000000000000019
:1057900043000000000000000000000000000000C6
:1057A00000000000000000000000000000000000F9
:1057B00043000000000000000000000000000000A6
:1057C00000000000000000000000000000000000D9
:1057D0004300000000000000000000000000000086
:1057E00000000000000000000000000000000000B9
:1057F0004300000000000000000000000000000066
:105800000000000000000000000000000000000098
:105810004300000000000000000000000000000045
:105820000000000000000000000000000000000078
:10583000035400085D53000800000000D75500081D
:10584000D5550008645400086454000864540008E6
:105850006454000864540008645400086454000848
:105860006454000864540008FFFFFFFFFFFFFFFFC0
:10587000FFFFFFFFFFFF00000100415343494900C4
:105880000000000000000000000000000000000018
:10589000000000000000000000004153434949009F
:1058A00000000000000000000000000000000000F8
:0C58B000000000000000000000000000EC
:0400000508003305B7
:00000001FF
